:07000300010900020A0000E0
:1002C200E4FDFCC3ED9FEC9E5015E4FBFA0BBB0072
:0F02D200010AEB64704A70F50DBD00010C80E469
:0102E10022FA
:07000E0000D2A200C2A222F1
:1001A600E4FFFEC2A2D2A300C2A112000ED2A31285
:1001B600000EC2A312000ED2A3FDEF25E0FF12002F
:1001C6000E30A30543070180000DBD08EDE4FDEEEA
:1001D600C313FE30A305430680800012000E0DBD3A
:1001E60008ED00D2A3D2A2D2A1EFB50601227F006C
:0101F60022E6
:10027300758921C29FD29E758CFC758A18D28C75A4
:10028300A882758DFD758BFD759850E4F58775B85B
:0802930010D28ED2ACD2AF22D2
:10029B00209310E508D39400400915087F2C7E01AC
:1002AB001202C2209410E508C39409500905087F77
:0702BB002C7E011202C22299
:10002600EFC3943B5004E4F50822EFD39441400912
:10003600EF9451500475080122EFD394574009EF0D
:100046009467500475080222EFD3946D4009EF942B
:100056007D500475080322EFD394834009EF9493EF
:10006600500475080422EFD394994009EF94A950DF
:100076000475080522EFD394AF4009EF94BF5004EE
:1000860075080622EFD394C54009EF94D550047540
:10009600080722EFD394DB4009EF94EB5004750870
:0C00A6000822EFD394F1400375080922F2
:10013E00120273C2A01201A6A907120026E9240713
:10014E00FF120026209213B2A07F0A7E001202C276
:10015E003092FD7F0A7E001202C230A00512029B71
:10016E008018C3E50B9410E50A9427500D1201A6D2
:10017E001200267FC87E001202C2309105E4F50AF5
:10018E00F50BD3E50B9410E50A942740B7750A27B3
:08019E00750B10E4F50880ACBC
:03000B0002023FAF
:10023F00C0E0C0D0758CFC758A18050BE50B7002F9
:10024F00050A0509E509B40A09750900E508600200
:10025F00C290E509B50808E50864096002D290D09C
:04026F00D0D0E032D9
:030023000201F7E0
:1001F700C0E0C0D030983CC298E599B46109E508E1
:10020700D3940040021508E599B46209E508C39440
:100217000950020508E599B46302C2A0E599B464E0
:1002270002D2A0E599B46503750800E599B46603A1
:08023700750809D0D0D0E032B7
:030000000200B249
:0C00B200787FE4F6D8FD75810B0200F9A0
:1000BE0002013EE493A3F8E493A34003F68001F219
:1000CE0008DFF48029E493A3F85407240CC8C33343
:1000DE00C4540F4420C8834004F456800146F6DF12
:1000EE00E4800B0102040810204080900003E47E9F
:1000FE00019360BCA3FF543F30E509541FFEE49307
:10010E00A360010ECF54C025E060A840B8E493A3CD
:10011E00FAE493A3F8E493A3C8C582C8CAC583CAF8
:10012E00F0A3C8C582C8CAC583CADFE9DEE780BEB0
:01000A0000F5
:00000001FF
